:100000000C942A000C943F000C943F000C943F0089
:100010000C943F000C943F000C943F000C943F0064
:100020000C943F000C943F000C943F000C943F0054
:100030000C943F000C943F000C943F000C943F0044
:100040000C943F000C943F000C943F000C943F0034
:100050000C943F0011241FBECFE5D8E0DEBFCDBF1A
:1000600010E0A0E6B0E0E6E1F1E002C005900D92FC
:10007000AA36B107D9F70E9441000C9489000C946C
:100080000000DF93CF93CDB7DEB761970FB6F8943A
:10009000DEBF0FBECDBFE7E3F0E08FEF8083E8E384
:1000A000F0E08FEF8083E1E3F0E01082E2E3F0E044
:1000B00083E08083CE0103969E878D87E0E6F0E0A3
:1000C000F88BEF87FAE0F98BEF85F88900808F8550
:1000D00098890196988B8F87ED85FE8500828D85A6
:1000E0009E8501969E878D8799899150998BE98984
:1000F000EE2351F71A821982A8E3B0E029813A81F0
:10010000CE010396FC01E20FF31F808180958C9352
:06011000F3CFF894FFCFCD
:0A0116003F065B4F666D7D077F6FAB
:00000001FF
