:100000000C942A000C9434000C9434000C943400AA
:100010000C9434000C9434000C9434000C94340090
:100020000C9434000C9434000C9434000C94340080
:100030000C9434000C9434000C9434000C94340070
:100040000C9434000C9434000C9434000C94340060
:100050000C94340011241FBECFE5D8E0DEBFCDBF25
:100060000E9436000C947F000C940000DF93CF9325
:10007000CDB7DEB7EAE3F0E083E08083E7E3F0E0CA
:100080001082EBE3F0E01082E8E3F0E087E08083A9
:10009000E6E3F0E0808186958695882361F4E6E3C7
:1000A000F0E0808186958695882391F7EBE3F0E078
:1000B00083E08083EDCFE6E3F0E08081882351F494
:1000C000E6E3F0E08081882319F7EBE3F0E081E0DC
:1000D0008083DECFE6E3F0E080818695882359F4C3
:1000E000E6E3F0E080818695882391F6EBE3F0E08B
:1000F00082E08083CDCFEBE3F0E01082C9CFF894AB
:02010000FFCF2F
:00000001FF
